{"abi":[{"type":"constructor","inputs":[],"stateMutability":"nonpayable"},{"type":"function","name":"DOMAIN_SEPARATOR","inputs":[],"outputs":[{"name":"","type":"bytes32","internalType":"bytes32"}],"stateMutability":"view"},{"type":"function","name":"allowance","inputs":[{"name":"owner","type":"address","internalType":"address"},{"name":"spender","type":"address","internalType":"address"}],"outputs":[{"name":"","type":"uint256","internalType":"uint256"}],"stateMutability":"view"},{"type":"function","name":"approve","inputs":[{"name":"spender","type":"address","internalType":"address"},{"name":"value","type":"uint256","internalType":"uint256"}],"outputs":[{"name":"","type":"bool","internalType":"bool"}],"stateMutability":"nonpayable"},{"type":"function","name":"approveAndCall","inputs":[{"name":"spender","type":"address","internalType":"address"},{"name":"value","type":"uint256","internalType":"uint256"}],"outputs":[{"name":"","type":"bool","internalType":"bool"}],"stateMutability":"nonpayable"},{"type":"function","name":"approveAndCall","inputs":[{"name":"spender","type":"address","internalType":"address"},{"name":"value","type":"uint256","internalType":"uint256"},{"name":"data","type":"bytes","internalType":"bytes"}],"outputs":[{"name":"","type":"bool","internalType":"bool"}],"stateMutability":"nonpayable"},{"type":"function","name":"balanceOf","inputs":[{"name":"account","type":"address","internalType":"address"}],"outputs":[{"name":"","type":"uint256","internalType":"uint256"}],"stateMutability":"view"},{"type":"function","name":"burn","inputs":[{"name":"value","type":"uint256","internalType":"uint256"}],"outputs":[],"stateMutability":"nonpayable"},{"type":"function","name":"burnFrom","inputs":[{"name":"account","type":"address","internalType":"address"},{"name":"value","type":"uint256","internalType":"uint256"}],"outputs":[],"stateMutability":"nonpayable"},{"type":"function","name":"decimals","inputs":[],"outputs":[{"name":"","type":"uint8","internalType":"uint8"}],"stateMutability":"view"},{"type":"function","name":"eip712Domain","inputs":[],"outputs":[{"name":"fields","type":"bytes1","internalType":"bytes1"},{"name":"name","type":"string","internalType":"string"},{"name":"version","type":"string","internalType":"string"},{"name":"chainId","type":"uint256","internalType":"uint256"},{"name":"verifyingContract","type":"address","internalType":"address"},{"name":"salt","type":"bytes32","internalType":"bytes32"},{"name":"extensions","type":"uint256[]","internalType":"uint256[]"}],"stateMutability":"view"},{"type":"function","name":"initialize","inputs":[{"name":"initOwner","type":"address","internalType":"address"},{"name":"initName","type":"string","internalType":"string"},{"name":"initSymbol","type":"string","internalType":"string"}],"outputs":[],"stateMutability":"nonpayable"},{"type":"function","name":"mint","inputs":[{"name":"account","type":"address","internalType":"address"},{"name":"value","type":"uint256","internalType":"uint256"}],"outputs":[],"stateMutability":"nonpayable"},{"type":"function","name":"name","inputs":[],"outputs":[{"name":"","type":"string","internalType":"string"}],"stateMutability":"view"},{"type":"function","name":"nonces","inputs":[{"name":"owner","type":"address","internalType":"address"}],"outputs":[{"name":"","type":"uint256","internalType":"uint256"}],"stateMutability":"view"},{"type":"function","name":"permit","inputs":[{"name":"owner","type":"address","internalType":"address"},{"name":"spender","type":"address","internalType":"address"},{"name":"value","type":"uint256","internalType":"uint256"},{"name":"deadline","type":"uint256","internalType":"uint256"},{"name":"v","type":"uint8","internalType":"uint8"},{"name":"r","type":"bytes32","internalType":"bytes32"},{"name":"s","type":"bytes32","internalType":"bytes32"}],"outputs":[],"stateMutability":"nonpayable"},{"type":"function","name":"supportsInterface","inputs":[{"name":"interfaceId","type":"bytes4","internalType":"bytes4"}],"outputs":[{"name":"","type":"bool","internalType":"bool"}],"stateMutability":"view"},{"type":"function","name":"symbol","inputs":[],"outputs":[{"name":"","type":"string","internalType":"string"}],"stateMutability":"view"},{"type":"function","name":"totalSupply","inputs":[],"outputs":[{"name":"","type":"uint256","internalType":"uint256"}],"stateMutability":"view"},{"type":"function","name":"transfer","inputs":[{"name":"to","type":"address","internalType":"address"},{"name":"value","type":"uint256","internalType":"uint256"}],"outputs":[{"name":"","type":"bool","internalType":"bool"}],"stateMutability":"nonpayable"},{"type":"function","name":"transferAndCall","inputs":[{"name":"to","type":"address","internalType":"address"},{"name":"value","type":"uint256","internalType":"uint256"}],"outputs":[{"name":"","type":"bool","internalType":"bool"}],"stateMutability":"nonpayable"},{"type":"function","name":"transferAndCall","inputs":[{"name":"to","type":"address","internalType":"address"},{"name":"value","type":"uint256","internalType":"uint256"},{"name":"data","type":"bytes","internalType":"bytes"}],"outputs":[{"name":"","type":"bool","internalType":"bool"}],"stateMutability":"nonpayable"},{"type":"function","name":"transferFrom","inputs":[{"name":"from","type":"address","internalType":"address"},{"name":"to","type":"address","internalType":"address"},{"name":"value","type":"uint256","internalType":"uint256"}],"outputs":[{"name":"","type":"bool","internalType":"bool"}],"stateMutability":"nonpayable"},{"type":"function","name":"transferFromAndCall","inputs":[{"name":"from","type":"address","internalType":"address"},{"name":"to","type":"address","internalType":"address"},{"name":"value","type":"uint256","internalType":"uint256"},{"name":"data","type":"bytes","internalType":"bytes"}],"outputs":[{"name":"","type":"bool","internalType":"bool"}],"stateMutability":"nonpayable"},{"type":"function","name":"transferFromAndCall","inputs":[{"name":"from","type":"address","internalType":"address"},{"name":"to","type":"address","internalType":"address"},{"name":"value","type":"uint256","internalType":"uint256"}],"outputs":[{"name":"","type":"bool","internalType":"bool"}],"stateMutability":"nonpayable"},{"type":"event","name":"Approval","inputs":[{"name":"owner","type":"address","indexed":true,"internalType":"address"},{"name":"spender","type":"address","indexed":true,"internalType":"address"},{"name":"value","type":"uint256","indexed":false,"internalType":"uint256"}],"anonymous":false},{"type":"event","name":"EIP712DomainChanged","inputs":[],"anonymous":false},{"type":"event","name":"Transfer","inputs":[{"name":"from","type":"address","indexed":true,"internalType":"address"},{"name":"to","type":"address","indexed":true,"internalType":"address"},{"name":"value","type":"uint256","indexed":false,"internalType":"uint256"}],"anonymous":false},{"type":"error","name":"ECDSAInvalidSignature","inputs":[]},{"type":"error","name":"ECDSAInvalidSignatureLength","inputs":[{"name":"length","type":"uint256","internalType":"uint256"}]},{"type":"error","name":"ECDSAInvalidSignatureS","inputs":[{"name":"s","type":"bytes32","internalType":"bytes32"}]},{"type":"error","name":"ERC1363ApproveFailed","inputs":[{"name":"spender","type":"address","internalType":"address"},{"name":"value","type":"uint256","internalType":"uint256"}]},{"type":"error","name":"ERC1363InvalidReceiver","inputs":[{"name":"receiver","type":"address","internalType":"address"}]},{"type":"error","name":"ERC1363InvalidSpender","inputs":[{"name":"spender","type":"address","internalType":"address"}]},{"type":"error","name":"ERC1363TransferFailed","inputs":[{"name":"receiver","type":"address","internalType":"address"},{"name":"value","type":"uint256","internalType":"uint256"}]},{"type":"error","name":"ERC1363TransferFromFailed","inputs":[{"name":"sender","type":"address","internalType":"address"},{"name":"receiver","type":"address","internalType":"address"},{"name":"value","type":"uint256","internalType":"uint256"}]},{"type":"error","name":"ERC20InsufficientAllowance","inputs":[{"name":"spender","type":"address","internalType":"address"},{"name":"allowance","type":"uint256","internalType":"uint256"},{"name":"needed","type":"uint256","internalType":"uint256"}]},{"type":"error","name":"ERC20InsufficientBalance","inputs":[{"name":"sender","type":"address","internalType":"address"},{"name":"balance","type":"uint256","internalType":"uint256"},{"name":"needed","type":"uint256","internalType":"uint256"}]},{"type":"error","name":"ERC20InvalidApprover","inputs":[{"name":"approver","type":"address","internalType":"address"}]},{"type":"error","name":"ERC20InvalidReceiver","inputs":[{"name":"receiver","type":"address","internalType":"address"}]},{"type":"error","name":"ERC20InvalidSender","inputs":[{"name":"sender","type":"address","internalType":"address"}]},{"type":"error","name":"ERC20InvalidSpender","inputs":[{"name":"spender","type":"address","internalType":"address"}]},{"type":"error","name":"ERC2612ExpiredSignature","inputs":[{"name":"deadline","type":"uint256","internalType":"uint256"}]},{"type":"error","name":"ERC2612InvalidSigner","inputs":[{"name":"signer","type":"address","internalType":"address"},{"name":"owner","type":"address","internalType":"address"}]},{"type":"error","name":"InvalidAccountNonce","inputs":[{"name":"account","type":"address","internalType":"address"},{"name":"currentNonce","type":"uint256","internalType":"uint256"}]},{"type":"error","name":"InvalidShortString","inputs":[]},{"type":"error","name":"StringTooLong","inputs":[{"name":"str","type":"string","internalType":"string"}]}],"bytecode":{"object":"0x610160604052348015610010575f5ffd5b506040518060400160405280600a815260200169131a5b9adb585c9ad95d60b21b81525080604051806040016040528060018152602001603160f81b81525060405180602001604052805f81525060405180602001604052805f815250816003908161007c9190610253565b5060046100898282610253565b5061009991508390506005610143565b610120526100a8816006610143565b61014052815160208084019190912060e052815190820120610100524660a05261013460e05161010051604080517f8b73c3c69bb8fe3d512ecc4cf759cc79239f7b179b0ffacaa9a75d522b39400f60208201529081019290925260608201524660808201523060a08201525f9060c00160405160208183030381529060405280519060200120905090565b60805250503060c05250610365565b5f60208351101561015e5761015783610175565b905061016f565b816101698482610253565b5060ff90505b92915050565b5f5f829050601f815111156101a8578260405163305a27a960e01b815260040161019f919061030d565b60405180910390fd5b80516101b382610342565b179392505050565b634e487b7160e01b5f52604160045260245ffd5b600181811c908216806101e357607f821691505b60208210810361020157634e487b7160e01b5f52602260045260245ffd5b50919050565b601f82111561024e57805f5260205f20601f840160051c8101602085101561022c5750805b601f840160051c820191505b8181101561024b575f8155600101610238565b50505b505050565b81516001600160401b0381111561026c5761026c6101bb565b6102808161027a84546101cf565b84610207565b6020601f8211600181146102b2575f831561029b5750848201515b5f19600385901b1c1916600184901b17845561024b565b5f84815260208120601f198516915b828110156102e157878501518255602094850194600190920191016102c1565b50848210156102fe57868401515f19600387901b60f8161c191681555b50505050600190811b01905550565b602081525f82518060208401528060208501604085015e5f604082850101526040601f19601f83011684010191505092915050565b80516020808301519190811015610201575f1960209190910360031b1b16919050565b60805160a05160c05160e05161010051610120516101405161187d6103b65f395f610bdb01525f610bae01525f61099a01525f61097201525f6108cd01525f6108f701525f610921015261187d5ff3fe608060405234801561000f575f5ffd5b5060043610610153575f3560e01c806370a08231116100bf578063a9059cbb11610079578063a9059cbb146102c8578063c1d34b89146102db578063cae9ca51146102ee578063d505accf14610301578063d8fbe99414610314578063dd62ed3e14610327575f5ffd5b806370a082311461024457806379cc67901461026c5780637ecebe001461027f57806384b0196e1461029257806390657147146102ad57806395d89b41146102c0575f5ffd5b8063313ce56711610110578063313ce567146101df5780633177029f146101ee5780633644e515146102015780634000aea01461020957806340c10f191461021c57806342966c6814610231575f5ffd5b806301ffc9a71461015757806306fdde031461017f578063095ea7b3146101945780631296ee62146101a757806318160ddd146101ba57806323b872dd146101cc575b5f5ffd5b61016a610165366004611261565b61035f565b60405190151581526020015b60405180910390f35b610187610395565b60405161017691906112aa565b61016a6101a23660046112d7565b610425565b61016a6101b53660046112d7565b61043c565b6002545b604051908152602001610176565b61016a6101da3660046112ff565b61045d565b60405160128152602001610176565b61016a6101fc3660046112d7565b610480565b6101be61049a565b61016a6102173660046113de565b6104a8565b61022f61022a3660046112d7565b6104f4565b005b61022f61023f366004611431565b610535565b6101be610252366004611448565b6001600160a01b03165f9081526020819052604090205490565b61022f61027a3660046112d7565b610541565b6101be61028d366004611448565b61054b565b61029a610555565b6040516101769796959493929190611461565b61022f6102bb3660046114f7565b610597565b6101876105d1565b61016a6102d63660046112d7565b6105e0565b61016a6102e9366004611555565b6105ed565b61016a6102fc3660046113de565b61063d565b61022f61030f3660046115b9565b610683565b61016a6103223660046112ff565b6107b9565b6101be610335366004611626565b6001600160a01b039182165f90815260016020908152604080832093909416825291909152205490565b5f6001600160e01b0319821663b0202a1160e01b148061038f57506301ffc9a760e01b6001600160e01b03198316145b92915050565b6060600980546103a490611657565b80601f01602080910402602001604051908101604052809291908181526020018280546103d090611657565b801561041b5780601f106103f25761010080835404028352916020019161041b565b820191905f5260205f20905b8154815290600101906020018083116103fe57829003601f168201915b5050505050905090565b5f336104328185856107dc565b5060019392505050565b5f610456838360405180602001604052805f8152506104a8565b9392505050565b5f3361046a8582856107ee565b610475858585610864565b506001949350505050565b5f610456838360405180602001604052805f81525061063d565b5f6104a36108c1565b905090565b5f6104b384846105e0565b6104e75760405163118d81d760e11b81526001600160a01b0385166004820152602481018490526044015b60405180910390fd5b61043233338686866109ea565b6008546001600160a01b031633146105275760405162461bcd60e51b8152602060048201525f60248201526044016104de565b6105318282610b37565b5050565b61053e81610b6b565b50565b6105318282610b75565b5f61038f82610b8a565b5f6060805f5f5f6060610566610ba7565b61056e610bd4565b604080515f80825260208201909252600f60f81b9b939a50919850469750309650945092509050565b600880546001600160a01b0319166001600160a01b03851617905560096105be83826116d3565b50600a6105cb82826116d3565b50505050565b6060600a80546103a490611657565b5f33610432818585610864565b5f6105f985858561045d565b61063057604051635ab42af360e11b81526001600160a01b03808716600483015285166024820152604481018490526064016104de565b61047533868686866109ea565b5f6106488484610425565b61067757604051631439557160e21b81526001600160a01b0385166004820152602481018490526044016104de565b61043233858585610c01565b834211156106a75760405163313c898160e11b8152600481018590526024016104de565b5f7f6e71edae12b1b97f4d1f60370fef10105fa2faae0126114a169c64845d6126c98888886106f28c6001600160a01b03165f90815260076020526040902080546001810190915590565b6040805160208101969096526001600160a01b0394851690860152929091166060840152608083015260a082015260c0810186905260e0016040516020818303038152906040528051906020012090505f61074c82610d3b565b90505f61075b82878787610d67565b9050896001600160a01b0316816001600160a01b0316146107a2576040516325c0072360e11b81526001600160a01b0380831660048301528b1660248201526044016104de565b6107ad8a8a8a6107dc565b50505050505050505050565b5f6107d484848460405180602001604052805f8152506105ed565b949350505050565b6107e98383836001610d93565b505050565b6001600160a01b038381165f908152600160209081526040808320938616835292905220545f198110156105cb578181101561085657604051637dc7a0d960e11b81526001600160a01b038416600482015260248101829052604481018390526064016104de565b6105cb84848484035f610d93565b6001600160a01b03831661088d57604051634b637e8f60e11b81525f60048201526024016104de565b6001600160a01b0382166108b65760405163ec442f0560e01b81525f60048201526024016104de565b6107e9838383610e65565b5f306001600160a01b037f00000000000000000000000000000000000000000000000000000000000000001614801561091957507f000000000000000000000000000000000000000000000000000000000000000046145b1561094357507f000000000000000000000000000000000000000000000000000000000000000090565b6104a3604080517f8b73c3c69bb8fe3d512ecc4cf759cc79239f7b179b0ffacaa9a75d522b39400f60208201527f0000000000000000000000000000000000000000000000000000000000000000918101919091527f000000000000000000000000000000000000000000000000000000000000000060608201524660808201523060a08201525f9060c00160405160208183030381529060405280519060200120905090565b826001600160a01b03163b5f03610a1f576040516322a5b36760e21b81526001600160a01b03841660048201526024016104de565b604051632229f29760e21b81526001600160a01b038416906388a7ca5c90610a5190889088908790879060040161178e565b6020604051808303815f875af1925050508015610a8b575060408051601f3d908101601f19168201909252610a88918101906117ca565b60015b610af2573d808015610ab8576040519150601f19603f3d011682016040523d82523d5f602084013e610abd565b606091505b5080515f03610aea576040516322a5b36760e21b81526001600160a01b03851660048201526024016104de565b805181602001fd5b6001600160e01b03198116632229f29760e21b14610b2e576040516322a5b36760e21b81526001600160a01b03851660048201526024016104de565b505b5050505050565b6001600160a01b038216610b605760405163ec442f0560e01b81525f60048201526024016104de565b6105315f8383610e65565b61053e3382610f8b565b610b808233836107ee565b6105318282610f8b565b6001600160a01b0381165f9081526007602052604081205461038f565b60606104a37f00000000000000000000000000000000000000000000000000000000000000006005610fbf565b60606104a37f00000000000000000000000000000000000000000000000000000000000000006006610fbf565b826001600160a01b03163b5f03610c365760405163deb6d3ed60e01b81526001600160a01b03841660048201526024016104de565b6040516307b04a2d60e41b81526001600160a01b03841690637b04a2d090610c66908790869086906004016117e5565b6020604051808303815f875af1925050508015610ca0575060408051601f3d908101601f19168201909252610c9d918101906117ca565b60015b610cff573d808015610ccd576040519150601f19603f3d011682016040523d82523d5f602084013e610cd2565b606091505b5080515f03610aea5760405163deb6d3ed60e01b81526001600160a01b03851660048201526024016104de565b6001600160e01b031981166307b04a2d60e41b14610b305760405163deb6d3ed60e01b81526001600160a01b03851660048201526024016104de565b5f61038f610d476108c1565b8360405161190160f01b8152600281019290925260228201526042902090565b5f5f5f5f610d7788888888611068565b925092509250610d878282611130565b50909695505050505050565b6001600160a01b038416610dbc5760405163e602df0560e01b81525f60048201526024016104de565b6001600160a01b038316610de557604051634a1406b160e11b81525f60048201526024016104de565b6001600160a01b038085165f90815260016020908152604080832093871683529290522082905580156105cb57826001600160a01b0316846001600160a01b03167f8c5be1e5ebec7d5bd14f71427d1e84f3dd0314c0f7b2291e5b200ac8c7c3b92584604051610e5791815260200190565b60405180910390a350505050565b6001600160a01b038316610e8f578060025f828254610e849190611814565b90915550610eff9050565b6001600160a01b0383165f9081526020819052604090205481811015610ee15760405163391434e360e21b81526001600160a01b038516600482015260248101829052604481018390526064016104de565b6001600160a01b0384165f9081526020819052604090209082900390555b6001600160a01b038216610f1b57600280548290039055610f39565b6001600160a01b0382165f9081526020819052604090208054820190555b816001600160a01b0316836001600160a01b03167fddf252ad1be2c89b69c2b068fc378daa952ba7f163c4a11628f55a4df523b3ef83604051610f7e91815260200190565b60405180910390a3505050565b6001600160a01b038216610fb457604051634b637e8f60e11b81525f60048201526024016104de565b610531825f83610e65565b606060ff8314610fd957610fd2836111e8565b905061038f565b818054610fe590611657565b80601f016020809104026020016040519081016040528092919081815260200182805461101190611657565b801561105c5780601f106110335761010080835404028352916020019161105c565b820191905f5260205f20905b81548152906001019060200180831161103f57829003601f168201915b5050505050905061038f565b5f80807f7fffffffffffffffffffffffffffffff5d576e7357a4501ddfe92f46681b20a08411156110a157505f91506003905082611126565b604080515f808252602082018084528a905260ff891692820192909252606081018790526080810186905260019060a0016020604051602081039080840390855afa1580156110f2573d5f5f3e3d5ffd5b5050604051601f1901519150506001600160a01b03811661111d57505f925060019150829050611126565b92505f91508190505b9450945094915050565b5f82600381111561114357611143611833565b0361114c575050565b600182600381111561116057611160611833565b0361117e5760405163f645eedf60e01b815260040160405180910390fd5b600282600381111561119257611192611833565b036111b35760405163fce698f760e01b8152600481018290526024016104de565b60038260038111156111c7576111c7611833565b03610531576040516335e2f38360e21b8152600481018290526024016104de565b60605f6111f483611225565b6040805160208082528183019092529192505f91906020820181803683375050509182525060208101929092525090565b5f60ff8216601f81111561038f57604051632cd44ac360e21b815260040160405180910390fd5b6001600160e01b03198116811461053e575f5ffd5b5f60208284031215611271575f5ffd5b81356104568161124c565b5f81518084528060208401602086015e5f602082860101526020601f19601f83011685010191505092915050565b602081525f610456602083018461127c565b80356001600160a01b03811681146112d2575f5ffd5b919050565b5f5f604083850312156112e8575f5ffd5b6112f1836112bc565b946020939093013593505050565b5f5f5f60608486031215611311575f5ffd5b61131a846112bc565b9250611328602085016112bc565b929592945050506040919091013590565b634e487b7160e01b5f52604160045260245ffd5b5f82601f83011261135c575f5ffd5b8135602083015f5f67ffffffffffffffff84111561137c5761137c611339565b50604051601f19601f85018116603f0116810181811067ffffffffffffffff821117156113ab576113ab611339565b6040528381529050808284018710156113c2575f5ffd5b838360208301375f602085830101528094505050505092915050565b5f5f5f606084860312156113f0575f5ffd5b6113f9846112bc565b925060208401359150604084013567ffffffffffffffff81111561141b575f5ffd5b6114278682870161134d565b9150509250925092565b5f60208284031215611441575f5ffd5b5035919050565b5f60208284031215611458575f5ffd5b610456826112bc565b60ff60f81b8816815260e060208201525f61147f60e083018961127c565b8281036040840152611491818961127c565b606084018890526001600160a01b038716608085015260a0840186905283810360c0850152845180825260208087019350909101905f5b818110156114e65783518352602093840193909201916001016114c8565b50909b9a5050505050505050505050565b5f5f5f60608486031215611509575f5ffd5b611512846112bc565b9250602084013567ffffffffffffffff81111561152d575f5ffd5b6115398682870161134d565b925050604084013567ffffffffffffffff81111561141b575f5ffd5b5f5f5f5f60808587031215611568575f5ffd5b611571856112bc565b935061157f602086016112bc565b925060408501359150606085013567ffffffffffffffff8111156115a1575f5ffd5b6115ad8782880161134d565b91505092959194509250565b5f5f5f5f5f5f5f60e0888a0312156115cf575f5ffd5b6115d8886112bc565b96506115e6602089016112bc565b95506040880135945060608801359350608088013560ff81168114611609575f5ffd5b9699959850939692959460a0840135945060c09093013592915050565b5f5f60408385031215611637575f5ffd5b611640836112bc565b915061164e602084016112bc565b90509250929050565b600181811c9082168061166b57607f821691505b60208210810361168957634e487b7160e01b5f52602260045260245ffd5b50919050565b601f8211156107e957805f5260205f20601f840160051c810160208510156116b45750805b601f840160051c820191505b81811015610b30575f81556001016116c0565b815167ffffffffffffffff8111156116ed576116ed611339565b611701816116fb8454611657565b8461168f565b6020601f821160018114611733575f831561171c5750848201515b5f19600385901b1c1916600184901b178455610b30565b5f84815260208120601f198516915b828110156117625787850151825560209485019460019092019101611742565b508482101561177f57868401515f19600387901b60f8161c191681555b50505050600190811b01905550565b6001600160a01b03858116825284166020820152604081018390526080606082018190525f906117c09083018461127c565b9695505050505050565b5f602082840312156117da575f5ffd5b81516104568161124c565b60018060a01b0384168152826020820152606060408201525f61180b606083018461127c565b95945050505050565b8082018082111561038f57634e487b7160e01b5f52601160045260245ffd5b634e487b7160e01b5f52602160045260245ffdfea2646970667358221220a5a177bea186e7c56a55cbe292987d406ba3494dfd2cb1d6453489a55218442c64736f6c634300081c0033","linkReferences":{}},"methodIdentifiers":{"DOMAIN_SEPARATOR()":"3644e515","allowance(address,address)":"dd62ed3e","approve(address,uint256)":"095ea7b3","approveAndCall(address,uint256)":"3177029f","approveAndCall(address,uint256,bytes)":"cae9ca51","balanceOf(address)":"70a08231","burn(uint256)":"42966c68","burnFrom(address,uint256)":"79cc6790","decimals()":"313ce567","eip712Domain()":"84b0196e","initialize(address,string,string)":"90657147","mint(address,uint256)":"40c10f19","name()":"06fdde03","nonces(address)":"7ecebe00","permit(address,address,uint256,uint256,uint8,bytes32,bytes32)":"d505accf","supportsInterface(bytes4)":"01ffc9a7","symbol()":"95d89b41","totalSupply()":"18160ddd","transfer(address,uint256)":"a9059cbb","transferAndCall(address,uint256)":"1296ee62","transferAndCall(address,uint256,bytes)":"4000aea0","transferFrom(address,address,uint256)":"23b872dd","transferFromAndCall(address,address,uint256)":"d8fbe994","transferFromAndCall(address,address,uint256,bytes)":"c1d34b89"},"id":46}