{"abi":[{"type":"constructor","inputs":[{"name":"router","type":"address","internalType":"address"}],"stateMutability":"nonpayable"},{"type":"receive","stateMutability":"payable"},{"type":"function","name":"LIQUIDITY","inputs":[],"outputs":[{"name":"","type":"int128","internalType":"int128"}],"stateMutability":"view"},{"type":"function","name":"OUTCOME_DURATION","inputs":[],"outputs":[{"name":"","type":"uint256","internalType":"uint256"}],"stateMutability":"view"},{"type":"function","name":"PRICE_SCALE","inputs":[],"outputs":[{"name":"","type":"int128","internalType":"int128"}],"stateMutability":"view"},{"type":"function","name":"cost","inputs":[{"name":"delta","type":"int128","internalType":"int128"},{"name":"qA","type":"int128","internalType":"int128"},{"name":"qB","type":"int128","internalType":"int128"}],"outputs":[{"name":"","type":"uint256","internalType":"uint256"}],"stateMutability":"view"},{"type":"function","name":"handleOracleFulfillment","inputs":[{"name":"requestId","type":"bytes32","internalType":"bytes32"},{"name":"response","type":"bytes","internalType":"bytes"},{"name":"err","type":"bytes","internalType":"bytes"}],"outputs":[],"stateMutability":"nonpayable"},{"type":"function","name":"mintNo","inputs":[{"name":"id","type":"uint256","internalType":"uint256"},{"name":"delta","type":"int128","internalType":"int128"},{"name":"receiver","type":"address","internalType":"address"}],"outputs":[],"stateMutability":"payable"},{"type":"function","name":"mintYes","inputs":[{"name":"id","type":"uint256","internalType":"uint256"},{"name":"delta","type":"int128","internalType":"int128"},{"name":"receiver","type":"address","internalType":"address"}],"outputs":[],"stateMutability":"payable"},{"type":"function","name":"newMarket","inputs":[{"name":"requestHash","type":"bytes32","internalType":"bytes32"},{"name":"donID","type":"bytes32","internalType":"bytes32"},{"name":"expiry","type":"uint256","internalType":"uint256"}],"outputs":[{"name":"id","type":"uint256","internalType":"uint256"}],"stateMutability":"nonpayable"},{"type":"function","name":"onTransferReceived","inputs":[{"name":"","type":"address","internalType":"address"},{"name":"","type":"address","internalType":"address"},{"name":"value","type":"uint256","internalType":"uint256"},{"name":"data","type":"bytes","internalType":"bytes"}],"outputs":[{"name":"","type":"bytes4","internalType":"bytes4"}],"stateMutability":"nonpayable"},{"type":"function","name":"price","inputs":[{"name":"qA","type":"int128","internalType":"int128"},{"name":"qB","type":"int128","internalType":"int128"}],"outputs":[{"name":"","type":"int128","internalType":"int128"}],"stateMutability":"view"},{"type":"function","name":"redeem","inputs":[{"name":"id","type":"uint256","internalType":"uint256"},{"name":"token","type":"address","internalType":"address"},{"name":"value","type":"uint256","internalType":"uint256"},{"name":"receiver","type":"address","internalType":"address"}],"outputs":[],"stateMutability":"nonpayable"},{"type":"function","name":"requestOutcome","inputs":[{"name":"id","type":"uint256","internalType":"uint256"},{"name":"request","type":"bytes","internalType":"bytes"},{"name":"subscriptionId","type":"uint64","internalType":"uint64"},{"name":"gasLimit","type":"uint32","internalType":"uint32"}],"outputs":[{"name":"requestId","type":"bytes32","internalType":"bytes32"}],"stateMutability":"nonpayable"},{"type":"function","name":"tokenImplementation","inputs":[],"outputs":[{"name":"","type":"address","internalType":"address"}],"stateMutability":"view"},{"type":"event","name":"MarketOutcome","inputs":[{"name":"id","type":"uint256","indexed":true,"internalType":"uint256"},{"name":"outcome","type":"bool","indexed":true,"internalType":"bool"}],"anonymous":false},{"type":"event","name":"NewMarket","inputs":[{"name":"id","type":"uint256","indexed":true,"internalType":"uint256"},{"name":"requestHash","type":"bytes32","indexed":false,"internalType":"bytes32"}],"anonymous":false},{"type":"event","name":"OutcomeRequested","inputs":[{"name":"id","type":"uint256","indexed":true,"internalType":"uint256"}],"anonymous":false},{"type":"event","name":"RequestFulfilled","inputs":[{"name":"id","type":"bytes32","indexed":true,"internalType":"bytes32"}],"anonymous":false},{"type":"event","name":"RequestSent","inputs":[{"name":"id","type":"bytes32","indexed":true,"internalType":"bytes32"}],"anonymous":false},{"type":"error","name":"FailedDeployment","inputs":[]},{"type":"error","name":"InsufficientBalance","inputs":[{"name":"balance","type":"uint256","internalType":"uint256"},{"name":"needed","type":"uint256","internalType":"uint256"}]},{"type":"error","name":"OnlyRouterCanFulfill","inputs":[]}],"bytecode":{"object":"0x610100604052348015610010575f5ffd5b5060405161404838038061404883398101604081905261002f91610129565b6001600160a01b0381166080526040516100489061011c565b604051809103905ff080158015610061573d5f5f3e3d5ffd5b506001600160a01b031660e05261008b61007b60016100a7565b6100866113886100a7565b6100c2565b600f0b60a05261009b60016100a7565b600f0b60c05250610163565b5f60016001603f1b038211156100bb575f5ffd5b5060401b90565b5f81600f0b5f036100d1575f5ffd5b5f82600f0b604085600f0b901b816100eb576100eb61014f565b05905060016001607f1b0319811280159061010d575060016001607f1b038113155b610115575f5ffd5b9392505050565b611c338061241583390190565b5f60208284031215610139575f5ffd5b81516001600160a01b0381168114610115575f5ffd5b634e487b7160e01b5f52601260045260245ffd5b60805160a05160c05160e0516122476101ce5f395f81816101960152818161031e015261034a01525f818161015001528181610570015281816105ac01528181610604015261063101525f8181610292015261051d01525f818161046101526110d701526122475ff3fe6080604052600436106100c2575f3560e01c806387c303691161007c5780639df459be116100575780639df459be14610259578063badde1221461026e578063c33f59d314610281578063c706df17146102b4575f5ffd5b806387c30369146101ef57806388a7ca5c146102025780639271a01d1461023a575f5ffd5b806309de1912146100cd5780630ca76175146100ff57806324e147ac146101205780632861c7d11461013f5780632f3a3d5d146101855780637d349973146101d0575f5ffd5b366100c957005b5f5ffd5b3480156100d8575f5ffd5b506100ec6100e7366004611d81565b6102d3565b6040519081526020015b60405180910390f35b34801561010a575f5ffd5b5061011e610119366004611e49565b610456565b005b34801561012b575f5ffd5b506100ec61013a366004611ecc565b6104d9565b34801561014a575f5ffd5b506101727f000000000000000000000000000000000000000000000000000000000000000081565b604051600f9190910b81526020016100f6565b348015610190575f5ffd5b506101b87f000000000000000000000000000000000000000000000000000000000000000081565b6040516001600160a01b0390911681526020016100f6565b3480156101db575f5ffd5b506101726101ea366004611f0c565b610561565b61011e6101fd366004611f54565b61066f565b34801561020d575f5ffd5b5061022161021c366004611f91565b610866565b6040516001600160e01b031990911681526020016100f6565b348015610245575f5ffd5b506100ec61025436600461202a565b6108b2565b348015610264575f5ffd5b506100ec61012c81565b61011e61027c366004611f54565b6109d4565b34801561028c575f5ffd5b506101727f000000000000000000000000000000000000000000000000000000000000000081565b3480156102bf575f5ffd5b5061011e6102ce3660046120a6565b610b5b565b5f4282116103015760405162461bcd60e51b8152602060048201525f60248201526044015b60405180910390fd5b50600180549081905f610313836120f6565b91905055505f6103427f0000000000000000000000000000000000000000000000000000000000000000610be2565b90505f61036e7f0000000000000000000000000000000000000000000000000000000000000000610be2565b6040805160c08101825288815260208082018981528284018981526001600160a01b0380891660608601908152818816608087019081525f60a088018181528d82529681905288902096518755935160018701559151600286015590516003850180549183166001600160a01b031990921691909117905590516004909301805492511515600160a01b026001600160a81b031990931693909116929092171790555190915083907f42e344722ce7f23a53f8eca1e3eef45e7ea099a136e2c5962a0b92c693832487906104459089815260200190565b60405180910390a250509392505050565b336001600160a01b037f0000000000000000000000000000000000000000000000000000000000000000161461049f5760405163c6829f8360e01b815260040160405180910390fd5b6104aa838383610bed565b60405183907f85e1543bf2f84fe80c6badbce3648c8539ad1df4d2b3d822938ca0538be727e6905f90a2505050565b5f5f6104e58484610561565b90505f6104ff6104f9600f87900b88610d22565b85610561565b90505f610510600f83900b84610d5b565b90505f610541600f83900b7f0000000000000000000000000000000000000000000000000000000000000000610d8c565b905061055581670de0b6b3a7640000610dc0565b98975050505050505050565b5f8061059c610594600f86900b7f0000000000000000000000000000000000000000000000000000000000000000610e2d565b600f0b610e7f565b90505f6105d0610594600f86900b7f0000000000000000000000000000000000000000000000000000000000000000610e2d565b90505f6105e1600f84900b83610d22565b90505f6105f082600f0b610ed1565b905061066261062c6106026002610ed1565b7f0000000000000000000000000000000000000000000000000000000000000000600f0b90610d8c565b6106597f0000000000000000000000000000000000000000000000000000000000000000600f0b84610d8c565b600f0b90610d5b565b9450505050505b92915050565b5f83815260208181526040808320815160c0810183528154815260018201548185015260028201548184015260038201546001600160a01b03908116606083015260049283015490811660808301819052600160a01b90910460ff16151560a083015283516318160ddd60e01b8152935191959461079c9489946107569461074094936318160ddd9380840193919291908290030181865afa158015610717573d5f5f3e3d5ffd5b505050506040513d601f19601f8201168201806040525081019061073b919061210e565b610f09565b610751670de0b6b3a7640000610f09565b610e2d565b61013a61074086606001516001600160a01b03166318160ddd6040518163ffffffff1660e01b8152600401602060405180830381865afa158015610717573d5f5f3e3d5ffd5b9050803410156107e55760405162461bcd60e51b8152602060048201526014602482015273125b9cdd59999a58da595b9d081c185e5b595b9d60621b60448201526064016102f8565b5f6107f885670de0b6b3a7640000610dc0565b60808401516040516340c10f1960e01b81526001600160a01b038781166004830152602482018490529293509116906340c10f19906044015b5f604051808303815f87803b158015610848575f5ffd5b505af115801561085a573d5f5f3e3d5ffd5b50505050505050505050565b5f808061087584860186612125565b9150915061088582338884610f25565b507f88a7ca5c75456956db1e96e88ee87aca8bdad85895835c2dc76fcc96396569cf979650505050505050565b5f84815260208181526040808320815160c081018352815480825260018301548286015260028301549382019390935260038201546001600160a01b0390811660608301526004909201549182166080820152600160a01b90910460ff16151560a0820152865192870192909220146109465760405162461bcd60e51b8152602060048201525f60248201526044016102f8565b8060400151421080610968575061012c81604001516109659190612153565b42115b1561098e5760405162461bcd60e51b8152602060048201525f60248201526044016102f8565b61099e85858584602001516110d3565b60405190925086907fc186ffde60b72d82e602f2d1bc1cb4c3b6b7fdac793ab8a888709a70ae72cddb905f90a250949350505050565b5f83815260208181526040808320815160c0810183528154815260018201548185015260028201548184015260038201546001600160a01b03908116606083018190526004938401549182166080840152600160a01b90910460ff16151560a083015283516318160ddd60e01b81529351919594610ac2948994610a7c9461074094936318160ddd9380840193919291908290030181865afa158015610717573d5f5f3e3d5ffd5b61013a61074086608001516001600160a01b03166318160ddd6040518163ffffffff1660e01b8152600401602060405180830381865afa158015610717573d5f5f3e3d5ffd5b905080341015610b0b5760405162461bcd60e51b8152602060048201526014602482015273125b9cdd59999a58da595b9d081c185e5b595b9d60621b60448201526064016102f8565b5f610b1e85670de0b6b3a7640000610dc0565b60608401516040516340c10f1960e01b81526001600160a01b038781166004830152602482018490529293509116906340c10f1990604401610831565b6040516323b872dd60e01b8152336004820152306024820152604481018390526001600160a01b038416906323b872dd906064016020604051808303815f875af1158015610bab573d5f5f3e3d5ffd5b505050506040513d601f19601f82011682018060405250810190610bcf9190612166565b50610bdc84848484610f25565b50505050565b5f610669825f6111a0565b805115610bf957505050565b5f83815260026020526040812054610c1390600190612185565b5f8181526020818152604091829020825160c08101845281548152600182015492810192909252600281015492820183905260038101546001600160a01b0390811660608401526004909101549081166080830152600160a01b900460ff16151560a0820152919250421080610c99575061012c8160400151610c969190612153565b42115b15610ca5575050505050565b5f84806020019051810190610cba9190612166565b5f8481526020819052604080822060048101805460ff60a01b1916600160a01b86151590810291909117909155600290910183905590519293509185917ff2f33ac405d4aaed12f2980a85eb5914b4f39ad8c13649393751697c721a27ae91a3505050505050565b5f600f83810b9083900b0160016001607f1b03198112801590610d4c575060016001607f1b038113155b610d54575f5ffd5b9392505050565b5f600f82810b9084900b0360016001607f1b03198112801590610d4c575060016001607f1b03811315610d54575f5ffd5b5f600f83810b9083900b0260401d60016001607f1b03198112801590610d4c575060016001607f1b03811315610d54575f5ffd5b5f815f03610dcf57505f610669565b5f83600f0b1215610dde575f5ffd5b600f83900b6fffffffffffffffffffffffffffffffff8316810260401c90608084901c026001600160c01b03811115610e15575f5ffd5b60401b8119811115610e25575f5ffd5b019392505050565b5f81600f0b5f03610e3c575f5ffd5b5f82600f0b604085600f0b901b81610e5657610e56612198565b05905060016001607f1b03198112801590610d4c575060016001607f1b03811315610d54575f5ffd5b5f600160461b82600f0b12610e92575f5ffd5b683fffffffffffffffff1982600f0b1215610eae57505f919050565b610669608083600f0b700171547652b82fe1777d0ffda0d23a7d1202901d611234565b5f5f82600f0b13610ee0575f5ffd5b6080610eeb83611ca5565b600f0b6fb17217f7d1cf79abc9e3b39803f2f6af02901c9050919050565b5f677fffffffffffffff821115610f1e575f5ffd5b5060401b90565b6001548410610f4f5760405162461bcd60e51b8152602060048201525f60248201526044016102f8565b5f8481526020818152604091829020825160c08101845281548152600182015492810192909252600281015492820183905260038101546001600160a01b0390811660608401526004909101549081166080830152600160a01b900460ff16151560a08201529015610fdc5760405162461bcd60e51b8152602060048201525f60248201526044016102f8565b8060a001518015611003575080606001516001600160a01b0316846001600160a01b031614155b156110295760405162461bcd60e51b8152602060048201525f60248201526044016102f8565b8060a00151158015611051575080608001516001600160a01b0316846001600160a01b031614155b156110775760405162461bcd60e51b8152602060048201525f60248201526044016102f8565b604051630852cd8d60e31b8152600481018490526001600160a01b038516906342966c68906024015f604051808303815f87803b1580156110b6575f5ffd5b505af11580156110c8573d5f5f3e3d5ffd5b505050505050505050565b5f5f7f00000000000000000000000000000000000000000000000000000000000000006001600160a01b031663461d27628688600188886040518663ffffffff1660e01b815260040161112a9594939291906121ac565b6020604051808303815f875af1158015611146573d5f5f3e3d5ffd5b505050506040513d601f19601f8201168201806040525081019061116a919061210e565b60405190915081907f1131472297a800fee664d1d89cfa8f7676ff07189ecc53f80bbb5f4969099db8905f90a295945050505050565b5f814710156111cb5760405163cf47918160e01b8152476004820152602481018390526044016102f8565b763d602d80600a3d3981f3363d3d373d3d3d363d730000008360601b60e81c175f526e5af43d82803e903d91602b57fd5bf38360781b176020526037600983f090506001600160a01b0381166106695760405163b06ebf3d60e01b815260040160405180910390fd5b5f600160461b82600f0b12611247575f5ffd5b683fffffffffffffffff1982600f0b121561126357505f919050565b6001607f1b5f6001603f1b8416600f0b13156112905770016a09e667f3bcc908b2fb1366ea957d3e0260801c5b5f8367400000000000000016600f0b13156112bc577001306fe0a31b7152de8d5a46305c85edec0260801c5b5f8367200000000000000016600f0b13156112e8577001172b83c7d517adcdf7c8c50eb14a791f0260801c5b5f8367100000000000000016600f0b13156113145770010b5586cf9890f6298b92b71842a983630260801c5b5f8367080000000000000016600f0b1315611340577001059b0d31585743ae7c548eb68ca417fd0260801c5b5f8367040000000000000016600f0b131561136c57700102c9a3e778060ee6f7caca4f7a29bde80260801c5b5f8367020000000000000016600f0b13156113985770010163da9fb33356d84a66ae336dcdfa3f0260801c5b5f8367010000000000000016600f0b13156113c457700100b1afa5abcbed6129ab13ec11dc95430260801c5b5f83668000000000000016600f0b13156113ef5770010058c86da1c09ea1ff19d294cf2f679b0260801c5b5f83664000000000000016600f0b131561141a577001002c605e2e8cec506d21bfc89a23a00f0260801c5b5f83662000000000000016600f0b131561144557700100162f3904051fa128bca9c55c31e5df0260801c5b5f83661000000000000016600f0b1315611470577001000b175effdc76ba38e31671ca9397250260801c5b5f83660800000000000016600f0b131561149b57700100058ba01fb9f96d6cacd4b180917c3d0260801c5b5f83660400000000000016600f0b13156114c65770010002c5cc37da9491d0985c348c68e7b30260801c5b5f83660200000000000016600f0b13156114f1577001000162e525ee054754457d59952920260260801c5b5f83660100000000000016600f0b131561151c5770010000b17255775c040618bf4a4ade83fc0260801c5b5f836580000000000016600f0b1315611546577001000058b91b5bc9ae2eed81e9b7d4cfab0260801c5b5f836540000000000016600f0b131561157057700100002c5c89d5ec6ca4d7c8acc017b7c90260801c5b5f836520000000000016600f0b131561159a5770010000162e43f4f831060e02d839a9d16d0260801c5b5f836510000000000016600f0b13156115c457700100000b1721bcfc99d9f890ea069117630260801c5b5f836508000000000016600f0b13156115ee5770010000058b90cf1e6d97f9ca14dbcc16280260801c5b5f836504000000000016600f0b1315611618577001000002c5c863b73f016468f6bac5ca2b0260801c5b5f836502000000000016600f0b131561164257700100000162e430e5a18f6119e3c02282a50260801c5b5f836501000000000016600f0b131561166c577001000000b1721835514b86e6d96efd1bfe0260801c5b5f8364800000000016600f0b131561169557700100000058b90c0b48c6be5df846c5b2ef0260801c5b5f8364400000000016600f0b13156116be5770010000002c5c8601cc6b9e94213c72737a0260801c5b5f8364200000000016600f0b13156116e7577001000000162e42fff037df38aa2b219f060260801c5b5f8364100000000016600f0b13156117105770010000000b17217fba9c739aa5819f44f90260801c5b5f8364080000000016600f0b1315611739577001000000058b90bfcdee5acd3c1cedc8230260801c5b5f8364040000000016600f0b131561176257700100000002c5c85fe31f35a6a30da1be500260801c5b5f8364020000000016600f0b131561178b5770010000000162e42ff0999ce3541b9fffcf0260801c5b5f8364010000000016600f0b13156117b457700100000000b17217f80f4ef5aadda455540260801c5b5f83638000000016600f0b13156117dc5770010000000058b90bfbf8479bd5a81b51ad0260801c5b5f83634000000016600f0b1315611804577001000000002c5c85fdf84bd62ae30a74cc0260801c5b5f83632000000016600f0b131561182c57700100000000162e42fefb2fed257559bdaa0260801c5b5f83631000000016600f0b1315611854577001000000000b17217f7d5a7716bba4a9ae0260801c5b5f83630800000016600f0b131561187c57700100000000058b90bfbe9ddbac5e109cce0260801c5b5f83630400000016600f0b13156118a45770010000000002c5c85fdf4b15de6f17eb0d0260801c5b5f83630200000016600f0b13156118cc577001000000000162e42fefa494f1478fde050260801c5b5f83630100000016600f0b13156118f45770010000000000b17217f7d20cf927c8e94c0260801c5b5f836280000016600f0b131561191b577001000000000058b90bfbe8f71cb4e4b33d0260801c5b5f836240000016600f0b131561194257700100000000002c5c85fdf477b662b269450260801c5b5f836220000016600f0b13156119695770010000000000162e42fefa3ae53369388c0260801c5b5f836210000016600f0b131561199057700100000000000b17217f7d1d351a389d400260801c5b5f836208000016600f0b13156119b75770010000000000058b90bfbe8e8b2d3d4ede0260801c5b5f836204000016600f0b13156119de577001000000000002c5c85fdf4741bea6e77e0260801c5b5f836202000016600f0b1315611a0557700100000000000162e42fefa39fe95583c20260801c5b5f836201000016600f0b1315611a2c577001000000000000b17217f7d1cfb72b45e10260801c5b5f8361800016600f0b1315611a5257700100000000000058b90bfbe8e7cc35c3f00260801c5b5f8361400016600f0b1315611a785770010000000000002c5c85fdf473e242ea380260801c5b5f8361200016600f0b1315611a9e577001000000000000162e42fefa39f02b772c0260801c5b5f8361100016600f0b1315611ac45770010000000000000b17217f7d1cf7d83c1a0260801c5b5f8361080016600f0b1315611aea577001000000000000058b90bfbe8e7bdcbe2e0260801c5b5f8361040016600f0b1315611b1057700100000000000002c5c85fdf473dea871f0260801c5b5f8361020016600f0b1315611b365770010000000000000162e42fefa39ef44d910260801c5b5f8361010016600f0b1315611b5c57700100000000000000b17217f7d1cf79e9490260801c5b5f83608016600f0b1315611b815770010000000000000058b90bfbe8e7bce5440260801c5b5f83604016600f0b1315611ba6577001000000000000002c5c85fdf473de6eca0260801c5b5f83602016600f0b1315611bcb57700100000000000000162e42fefa39ef366f0260801c5b5f83601016600f0b1315611bf0577001000000000000000b17217f7d1cf79afa0260801c5b5f83600816600f0b1315611c1557700100000000000000058b90bfbe8e7bcd6d0260801c5b5f83600416600f0b1315611c3a5770010000000000000002c5c85fdf473de6b20260801c5b5f83600216600f0b1315611c5f577001000000000000000162e42fefa39ef3580260801c5b5f83600116600f0b1315611c845770010000000000000000b17217f7d1cf79ab0260801c5b600f83810b60401d603f03900b1c60016001607f1b03811115610669575f5ffd5b5f5f82600f0b13611cb4575f5ffd5b5f600f83900b680100000000000000008112611cd2576040918201911d5b6401000000008112611ce6576020918201911d5b620100008112611cf8576010918201911d5b6101008112611d09576008918201911d5b60108112611d19576004918201911d5b60048112611d29576002918201911d5b60028112611d38576001820191505b603f19820160401b600f85900b607f8490031b6001603f1b5b5f811315611d765790800260ff81901c8281029390930192607f011c9060011d611d51565b509095945050505050565b5f5f5f60608486031215611d93575f5ffd5b505081359360208301359350604090920135919050565b634e487b7160e01b5f52604160045260245ffd5b5f82601f830112611dcd575f5ffd5b813567ffffffffffffffff811115611de757611de7611daa565b604051601f8201601f19908116603f0116810167ffffffffffffffff81118282101715611e1657611e16611daa565b604052818152838201602001851015611e2d575f5ffd5b816020850160208301375f918101602001919091529392505050565b5f5f5f60608486031215611e5b575f5ffd5b83359250602084013567ffffffffffffffff811115611e78575f5ffd5b611e8486828701611dbe565b925050604084013567ffffffffffffffff811115611ea0575f5ffd5b611eac86828701611dbe565b9150509250925092565b8035600f81900b8114611ec7575f5ffd5b919050565b5f5f5f60608486031215611ede575f5ffd5b611ee784611eb6565b9250611ef560208501611eb6565b9150611f0360408501611eb6565b90509250925092565b5f5f60408385031215611f1d575f5ffd5b611f2683611eb6565b9150611f3460208401611eb6565b90509250929050565b6001600160a01b0381168114611f51575f5ffd5b50565b5f5f5f60608486031215611f66575f5ffd5b83359250611f7660208501611eb6565b91506040840135611f8681611f3d565b809150509250925092565b5f5f5f5f5f60808688031215611fa5575f5ffd5b8535611fb081611f3d565b94506020860135611fc081611f3d565b935060408601359250606086013567ffffffffffffffff811115611fe2575f5ffd5b8601601f81018813611ff2575f5ffd5b803567ffffffffffffffff811115612008575f5ffd5b886020828401011115612019575f5ffd5b959894975092955050506020019190565b5f5f5f5f6080858703121561203d575f5ffd5b84359350602085013567ffffffffffffffff81111561205a575f5ffd5b61206687828801611dbe565b935050604085013567ffffffffffffffff81168114612083575f5ffd5b9150606085013563ffffffff8116811461209b575f5ffd5b939692955090935050565b5f5f5f5f608085870312156120b9575f5ffd5b8435935060208501356120cb81611f3d565b925060408501359150606085013561209b81611f3d565b634e487b7160e01b5f52601160045260245ffd5b5f60018201612107576121076120e2565b5060010190565b5f6020828403121561211e575f5ffd5b5051919050565b5f5f60408385031215612136575f5ffd5b82359150602083013561214881611f3d565b809150509250929050565b80820180821115610669576106696120e2565b5f60208284031215612176575f5ffd5b81518015158114610d54575f5ffd5b81810381811115610669576106696120e2565b634e487b7160e01b5f52601260045260245ffd5b67ffffffffffffffff8616815260a060208201525f85518060a0840152806020880160c085015e5f60c0828501015260c0601f19601f83011684010191505061ffff8516604083015263ffffffff84166060830152826080830152969550505050505056fea2646970667358221220d825ad62c4838d02793c73bf037bcf4cb75be666d47ae2f3c0f21d6699768c2d64736f6c634300081c0033610160604052348015610010575f5ffd5b506040518060400160405280600a815260200169131a5b9adb585c9ad95d60b21b81525080604051806040016040528060018152602001603160f81b81525060405180602001604052805f81525060405180602001604052805f815250816003908161007c9190610253565b5060046100898282610253565b5061009991508390506005610143565b610120526100a8816006610143565b61014052815160208084019190912060e052815190820120610100524660a05261013460e05161010051604080517f8b73c3c69bb8fe3d512ecc4cf759cc79239f7b179b0ffacaa9a75d522b39400f60208201529081019290925260608201524660808201523060a08201525f9060c00160405160208183030381529060405280519060200120905090565b60805250503060c05250610365565b5f60208351101561015e5761015783610175565b905061016f565b816101698482610253565b5060ff90505b92915050565b5f5f829050601f815111156101a8578260405163305a27a960e01b815260040161019f919061030d565b60405180910390fd5b80516101b382610342565b179392505050565b634e487b7160e01b5f52604160045260245ffd5b600181811c908216806101e357607f821691505b60208210810361020157634e487b7160e01b5f52602260045260245ffd5b50919050565b601f82111561024e57805f5260205f20601f840160051c8101602085101561022c5750805b601f840160051c820191505b8181101561024b575f8155600101610238565b50505b505050565b81516001600160401b0381111561026c5761026c6101bb565b6102808161027a84546101cf565b84610207565b6020601f8211600181146102b2575f831561029b5750848201515b5f19600385901b1c1916600184901b17845561024b565b5f84815260208120601f198516915b828110156102e157878501518255602094850194600190920191016102c1565b50848210156102fe57868401515f19600387901b60f8161c191681555b50505050600190811b01905550565b602081525f82518060208401528060208501604085015e5f604082850101526040601f19601f83011684010191505092915050565b80516020808301519190811015610201575f1960209190910360031b1b16919050565b60805160a05160c05160e05161010051610120516101405161187d6103b65f395f610bdb01525f610bae01525f61099a01525f61097201525f6108cd01525f6108f701525f610921015261187d5ff3fe608060405234801561000f575f5ffd5b5060043610610153575f3560e01c806370a08231116100bf578063a9059cbb11610079578063a9059cbb146102c8578063c1d34b89146102db578063cae9ca51146102ee578063d505accf14610301578063d8fbe99414610314578063dd62ed3e14610327575f5ffd5b806370a082311461024457806379cc67901461026c5780637ecebe001461027f57806384b0196e1461029257806390657147146102ad57806395d89b41146102c0575f5ffd5b8063313ce56711610110578063313ce567146101df5780633177029f146101ee5780633644e515146102015780634000aea01461020957806340c10f191461021c57806342966c6814610231575f5ffd5b806301ffc9a71461015757806306fdde031461017f578063095ea7b3146101945780631296ee62146101a757806318160ddd146101ba57806323b872dd146101cc575b5f5ffd5b61016a610165366004611261565b61035f565b60405190151581526020015b60405180910390f35b610187610395565b60405161017691906112aa565b61016a6101a23660046112d7565b610425565b61016a6101b53660046112d7565b61043c565b6002545b604051908152602001610176565b61016a6101da3660046112ff565b61045d565b60405160128152602001610176565b61016a6101fc3660046112d7565b610480565b6101be61049a565b61016a6102173660046113de565b6104a8565b61022f61022a3660046112d7565b6104f4565b005b61022f61023f366004611431565b610535565b6101be610252366004611448565b6001600160a01b03165f9081526020819052604090205490565b61022f61027a3660046112d7565b610541565b6101be61028d366004611448565b61054b565b61029a610555565b6040516101769796959493929190611461565b61022f6102bb3660046114f7565b610597565b6101876105d1565b61016a6102d63660046112d7565b6105e0565b61016a6102e9366004611555565b6105ed565b61016a6102fc3660046113de565b61063d565b61022f61030f3660046115b9565b610683565b61016a6103223660046112ff565b6107b9565b6101be610335366004611626565b6001600160a01b039182165f90815260016020908152604080832093909416825291909152205490565b5f6001600160e01b0319821663b0202a1160e01b148061038f57506301ffc9a760e01b6001600160e01b03198316145b92915050565b6060600980546103a490611657565b80601f01602080910402602001604051908101604052809291908181526020018280546103d090611657565b801561041b5780601f106103f25761010080835404028352916020019161041b565b820191905f5260205f20905b8154815290600101906020018083116103fe57829003601f168201915b5050505050905090565b5f336104328185856107dc565b5060019392505050565b5f610456838360405180602001604052805f8152506104a8565b9392505050565b5f3361046a8582856107ee565b610475858585610864565b506001949350505050565b5f610456838360405180602001604052805f81525061063d565b5f6104a36108c1565b905090565b5f6104b384846105e0565b6104e75760405163118d81d760e11b81526001600160a01b0385166004820152602481018490526044015b60405180910390fd5b61043233338686866109ea565b6008546001600160a01b031633146105275760405162461bcd60e51b8152602060048201525f60248201526044016104de565b6105318282610b37565b5050565b61053e81610b6b565b50565b6105318282610b75565b5f61038f82610b8a565b5f6060805f5f5f6060610566610ba7565b61056e610bd4565b604080515f80825260208201909252600f60f81b9b939a50919850469750309650945092509050565b600880546001600160a01b0319166001600160a01b03851617905560096105be83826116d3565b50600a6105cb82826116d3565b50505050565b6060600a80546103a490611657565b5f33610432818585610864565b5f6105f985858561045d565b61063057604051635ab42af360e11b81526001600160a01b03808716600483015285166024820152604481018490526064016104de565b61047533868686866109ea565b5f6106488484610425565b61067757604051631439557160e21b81526001600160a01b0385166004820152602481018490526044016104de565b61043233858585610c01565b834211156106a75760405163313c898160e11b8152600481018590526024016104de565b5f7f6e71edae12b1b97f4d1f60370fef10105fa2faae0126114a169c64845d6126c98888886106f28c6001600160a01b03165f90815260076020526040902080546001810190915590565b6040805160208101969096526001600160a01b0394851690860152929091166060840152608083015260a082015260c0810186905260e0016040516020818303038152906040528051906020012090505f61074c82610d3b565b90505f61075b82878787610d67565b9050896001600160a01b0316816001600160a01b0316146107a2576040516325c0072360e11b81526001600160a01b0380831660048301528b1660248201526044016104de565b6107ad8a8a8a6107dc565b50505050505050505050565b5f6107d484848460405180602001604052805f8152506105ed565b949350505050565b6107e98383836001610d93565b505050565b6001600160a01b038381165f908152600160209081526040808320938616835292905220545f198110156105cb578181101561085657604051637dc7a0d960e11b81526001600160a01b038416600482015260248101829052604481018390526064016104de565b6105cb84848484035f610d93565b6001600160a01b03831661088d57604051634b637e8f60e11b81525f60048201526024016104de565b6001600160a01b0382166108b65760405163ec442f0560e01b81525f60048201526024016104de565b6107e9838383610e65565b5f306001600160a01b037f00000000000000000000000000000000000000000000000000000000000000001614801561091957507f000000000000000000000000000000000000000000000000000000000000000046145b1561094357507f000000000000000000000000000000000000000000000000000000000000000090565b6104a3604080517f8b73c3c69bb8fe3d512ecc4cf759cc79239f7b179b0ffacaa9a75d522b39400f60208201527f0000000000000000000000000000000000000000000000000000000000000000918101919091527f000000000000000000000000000000000000000000000000000000000000000060608201524660808201523060a08201525f9060c00160405160208183030381529060405280519060200120905090565b826001600160a01b03163b5f03610a1f576040516322a5b36760e21b81526001600160a01b03841660048201526024016104de565b604051632229f29760e21b81526001600160a01b038416906388a7ca5c90610a5190889088908790879060040161178e565b6020604051808303815f875af1925050508015610a8b575060408051601f3d908101601f19168201909252610a88918101906117ca565b60015b610af2573d808015610ab8576040519150601f19603f3d011682016040523d82523d5f602084013e610abd565b606091505b5080515f03610aea576040516322a5b36760e21b81526001600160a01b03851660048201526024016104de565b805181602001fd5b6001600160e01b03198116632229f29760e21b14610b2e576040516322a5b36760e21b81526001600160a01b03851660048201526024016104de565b505b5050505050565b6001600160a01b038216610b605760405163ec442f0560e01b81525f60048201526024016104de565b6105315f8383610e65565b61053e3382610f8b565b610b808233836107ee565b6105318282610f8b565b6001600160a01b0381165f9081526007602052604081205461038f565b60606104a37f00000000000000000000000000000000000000000000000000000000000000006005610fbf565b60606104a37f00000000000000000000000000000000000000000000000000000000000000006006610fbf565b826001600160a01b03163b5f03610c365760405163deb6d3ed60e01b81526001600160a01b03841660048201526024016104de565b6040516307b04a2d60e41b81526001600160a01b03841690637b04a2d090610c66908790869086906004016117e5565b6020604051808303815f875af1925050508015610ca0575060408051601f3d908101601f19168201909252610c9d918101906117ca565b60015b610cff573d808015610ccd576040519150601f19603f3d011682016040523d82523d5f602084013e610cd2565b606091505b5080515f03610aea5760405163deb6d3ed60e01b81526001600160a01b03851660048201526024016104de565b6001600160e01b031981166307b04a2d60e41b14610b305760405163deb6d3ed60e01b81526001600160a01b03851660048201526024016104de565b5f61038f610d476108c1565b8360405161190160f01b8152600281019290925260228201526042902090565b5f5f5f5f610d7788888888611068565b925092509250610d878282611130565b50909695505050505050565b6001600160a01b038416610dbc5760405163e602df0560e01b81525f60048201526024016104de565b6001600160a01b038316610de557604051634a1406b160e11b81525f60048201526024016104de565b6001600160a01b038085165f90815260016020908152604080832093871683529290522082905580156105cb57826001600160a01b0316846001600160a01b03167f8c5be1e5ebec7d5bd14f71427d1e84f3dd0314c0f7b2291e5b200ac8c7c3b92584604051610e5791815260200190565b60405180910390a350505050565b6001600160a01b038316610e8f578060025f828254610e849190611814565b90915550610eff9050565b6001600160a01b0383165f9081526020819052604090205481811015610ee15760405163391434e360e21b81526001600160a01b038516600482015260248101829052604481018390526064016104de565b6001600160a01b0384165f9081526020819052604090209082900390555b6001600160a01b038216610f1b57600280548290039055610f39565b6001600160a01b0382165f9081526020819052604090208054820190555b816001600160a01b0316836001600160a01b03167fddf252ad1be2c89b69c2b068fc378daa952ba7f163c4a11628f55a4df523b3ef83604051610f7e91815260200190565b60405180910390a3505050565b6001600160a01b038216610fb457604051634b637e8f60e11b81525f60048201526024016104de565b610531825f83610e65565b606060ff8314610fd957610fd2836111e8565b905061038f565b818054610fe590611657565b80601f016020809104026020016040519081016040528092919081815260200182805461101190611657565b801561105c5780601f106110335761010080835404028352916020019161105c565b820191905f5260205f20905b81548152906001019060200180831161103f57829003601f168201915b5050505050905061038f565b5f80807f7fffffffffffffffffffffffffffffff5d576e7357a4501ddfe92f46681b20a08411156110a157505f91506003905082611126565b604080515f808252602082018084528a905260ff891692820192909252606081018790526080810186905260019060a0016020604051602081039080840390855afa1580156110f2573d5f5f3e3d5ffd5b5050604051601f1901519150506001600160a01b03811661111d57505f925060019150829050611126565b92505f91508190505b9450945094915050565b5f82600381111561114357611143611833565b0361114c575050565b600182600381111561116057611160611833565b0361117e5760405163f645eedf60e01b815260040160405180910390fd5b600282600381111561119257611192611833565b036111b35760405163fce698f760e01b8152600481018290526024016104de565b60038260038111156111c7576111c7611833565b03610531576040516335e2f38360e21b8152600481018290526024016104de565b60605f6111f483611225565b6040805160208082528183019092529192505f91906020820181803683375050509182525060208101929092525090565b5f60ff8216601f81111561038f57604051632cd44ac360e21b815260040160405180910390fd5b6001600160e01b03198116811461053e575f5ffd5b5f60208284031215611271575f5ffd5b81356104568161124c565b5f81518084528060208401602086015e5f602082860101526020601f19601f83011685010191505092915050565b602081525f610456602083018461127c565b80356001600160a01b03811681146112d2575f5ffd5b919050565b5f5f604083850312156112e8575f5ffd5b6112f1836112bc565b946020939093013593505050565b5f5f5f60608486031215611311575f5ffd5b61131a846112bc565b9250611328602085016112bc565b929592945050506040919091013590565b634e487b7160e01b5f52604160045260245ffd5b5f82601f83011261135c575f5ffd5b8135602083015f5f67ffffffffffffffff84111561137c5761137c611339565b50604051601f19601f85018116603f0116810181811067ffffffffffffffff821117156113ab576113ab611339565b6040528381529050808284018710156113c2575f5ffd5b838360208301375f602085830101528094505050505092915050565b5f5f5f606084860312156113f0575f5ffd5b6113f9846112bc565b925060208401359150604084013567ffffffffffffffff81111561141b575f5ffd5b6114278682870161134d565b9150509250925092565b5f60208284031215611441575f5ffd5b5035919050565b5f60208284031215611458575f5ffd5b610456826112bc565b60ff60f81b8816815260e060208201525f61147f60e083018961127c565b8281036040840152611491818961127c565b606084018890526001600160a01b038716608085015260a0840186905283810360c0850152845180825260208087019350909101905f5b818110156114e65783518352602093840193909201916001016114c8565b50909b9a5050505050505050505050565b5f5f5f60608486031215611509575f5ffd5b611512846112bc565b9250602084013567ffffffffffffffff81111561152d575f5ffd5b6115398682870161134d565b925050604084013567ffffffffffffffff81111561141b575f5ffd5b5f5f5f5f60808587031215611568575f5ffd5b611571856112bc565b935061157f602086016112bc565b925060408501359150606085013567ffffffffffffffff8111156115a1575f5ffd5b6115ad8782880161134d565b91505092959194509250565b5f5f5f5f5f5f5f60e0888a0312156115cf575f5ffd5b6115d8886112bc565b96506115e6602089016112bc565b95506040880135945060608801359350608088013560ff81168114611609575f5ffd5b9699959850939692959460a0840135945060c09093013592915050565b5f5f60408385031215611637575f5ffd5b611640836112bc565b915061164e602084016112bc565b90509250929050565b600181811c9082168061166b57607f821691505b60208210810361168957634e487b7160e01b5f52602260045260245ffd5b50919050565b601f8211156107e957805f5260205f20601f840160051c810160208510156116b45750805b601f840160051c820191505b81811015610b30575f81556001016116c0565b815167ffffffffffffffff8111156116ed576116ed611339565b611701816116fb8454611657565b8461168f565b6020601f821160018114611733575f831561171c5750848201515b5f19600385901b1c1916600184901b178455610b30565b5f84815260208120601f198516915b828110156117625787850151825560209485019460019092019101611742565b508482101561177f57868401515f19600387901b60f8161c191681555b50505050600190811b01905550565b6001600160a01b03858116825284166020820152604081018390526080606082018190525f906117c09083018461127c565b9695505050505050565b5f602082840312156117da575f5ffd5b81516104568161124c565b60018060a01b0384168152826020820152606060408201525f61180b606083018461127c565b95945050505050565b8082018082111561038f57634e487b7160e01b5f52601160045260245ffd5b634e487b7160e01b5f52602160045260245ffdfea2646970667358221220a5a177bea186e7c56a55cbe292987d406ba3494dfd2cb1d6453489a55218442c64736f6c634300081c0033","linkReferences":{}},"methodIdentifiers":{"LIQUIDITY()":"2861c7d1","OUTCOME_DURATION()":"9df459be","PRICE_SCALE()":"c33f59d3","cost(int128,int128,int128)":"24e147ac","handleOracleFulfillment(bytes32,bytes,bytes)":"0ca76175","mintNo(uint256,int128,address)":"87c30369","mintYes(uint256,int128,address)":"badde122","newMarket(bytes32,bytes32,uint256)":"09de1912","onTransferReceived(address,address,uint256,bytes)":"88a7ca5c","price(int128,int128)":"7d349973","redeem(uint256,address,uint256,address)":"c706df17","requestOutcome(uint256,bytes,uint64,uint32)":"9271a01d","tokenImplementation()":"2f3a3d5d"},"id":45}